:020000040800F2
:1000000000800120E9110008891100088B11000807
:100010008D1100088F1100089111000800000000E8
:100020000000000000000000000000009311000824
:1000300095110008000000009711000899110008B0
:100040003912000839120008391200083912000864
:100050003912000839120008391200083912000854
:100060003912000839120008391200083912000844
:100070003912000839120008391200083912000834
:100080003912000839120008391200080000000077
:10009000000000000000000000000000391200080D
:1000A0003912000839120008391200083912000804
:1000B00039120008391200083912000839120008F4
:1000C00039120008391200083912000839120008E4
:1000D0003912000839120008391200080000000027
:1000E0003912000839120008391200080000000017
:1000F00000000000000000000000000039120008AD
:1001000000000000391200083912000839120008F6
:1001100000000000000000000000000000000000DF
:100120003912000839120008391200083912000883
:10013000391200080000000000000000000000006C
:10014000000000000000000000000000391200085C
:100150003912000839120008391200083912000853
:1001600039120008391200080000000000000000E9
:10017000000000000000000000000000000000007F
:10018000000000003912000800000000000000001C
:040190003912000818
:1001940010B5054C237833B9044B13B10448AFF3BD
:1001A40000800123237010BD0C000020000000001B
:1001B4009412000808B5034B1BB103490348AFF37D
:1001C400008008BD00000000100000209412000808
:1001D40053B94AB9002908BF00281CBF4FF0FF31AA
:1001E4004FF0FF3000F07AB9ADF1080C6DE904CEA0
:1001F40000F006F8DDF804E0DDE9022304B07047FE
:100204002DE9F0478C460D460446089E002B51D13B
:100214008A4217466DD9B2FA82FEBEF1000F0BD0A6
:10022400CEF1200C01FA0EF520FA0CFC02FA0EF7BE
:100234004CEA050C00FA0EF44FEA174A250CBCFBF5
:10024400FAF81FFA87F90AFB18CC45EA0C4508FBB3
:1002540009F3AB420AD9ED1908F1FF3280F023818A
:10026400AB4240F22081A8F102083D44ED1AA4B249
:10027400B5FBFAF00AFB105544EA054400FB09F902
:10028400A14509D9E41900F1FF3380F00A81A145A1
:1002940040F2078102383C44A4EB090440EA0840D8
:1002A4000021002E61D024FA0EF400233460736020
:1002B400BDE8F0878B4207D9002E54D0002186E890
:1002C40021000846BDE8F087B3FA83F1002940F025
:1002D4008E80AB4202D3824200F2FA80841A65EB2C
:1002E40003050120AC46002E3FD086E81010BDE87F
:1002F400F08712B90127B7FBF2F7B7FA87FEBEF110
:10030400000F34D1EB1B3A0C1FFA87FC0121B3FB1D
:10031400F2F8250C02FB183345EA03450CFB08F3FD
:10032400AB4207D9ED1908F1FF3002D2AB4200F21B
:10033400D1808046ED1AA3B2B5FBF2F002FB105552
:1003440043EA05440CFB00FCA44507D9E41900F179
:10035400FF3302D2A44500F2B8801846A4EB0C0483
:1003640040EA08409DE731463046BDE8F087CEF1CB
:10037400200405FA0EF307FA0EF720FA04F83A0CF3
:1003840025FA04F448EA0308B4FBF2F14FEA1845ED
:1003940002FB11441FFA87FC45EA044501FB0CF3F8
:1003A400AB4200FA0EF409D9ED1901F1FF3080F0E7
:1003B4008A80AB4240F2878002393D44EB1A1FFA2F
:1003C40088F5B3FBF2F002FB103345EA034500FB6A
:1003D4000CF3AB4207D9ED1900F1FF386FD2AB42F1
:1003E4006DD902383D44EB1A40EA01418FE7C1F16F
:1003F400200722FA07F88B4005FA01F448EA0303C0
:1004040020FA07FE4FEA134CFD404EEA040EB5FBFA
:10041400FCF94FEA1E440CFB19551FFA83F844EA11
:10042400054509FB08F4AC4202FA01F200FA01FAAC
:1004340008D9ED1809F1FF3043D2AC4241D9A9F1F2
:1004440002091D442D1B1FFA8EFEB5FBFCF00CFBAC
:1004540010554EEA054400FB08F8A04507D9E418F6
:1004640000F1FF3529D2A04527D902381C4440EABF
:100474000940A4EB0804A0FB02894C45C6464D463E
:1004840015D312D056B1BAEB0E0364EB050404FA8B
:1004940007F7CB401F43CC40376074600021BDE8B0
:1004A400F0871846F8E69046E0E6C245EAD2B8EB93
:1004B400020E69EB03050138E4E72846D7E7404616
:1004C40091E78146BEE7014678E702383C4445E7B8
:1004D400084608E7A8F102083D442BE7704700BF2F
:1004E40038B50E4A0E4B054618784FF47A73B3FBB1
:1004F400F0F31068B0FBF3F000F088F8044658B944
:100504000F2D09D8024629464FF0FF3000F04AF873
:10051400044B20461D6038BD012038BD0800002072
:10052400000000200400002008B50B4B1A6842F4B8
:1005340000721A601A6842F480621A601A6842F4FF
:1005440080721A60032000F01BF80020FFF7C8FF38
:1005540000F0C8FD002008BD003C0240034A044BE3
:1005640011681B780B441360704700BF28000020FB
:1005740000000020014B1868704700BF28000020CD
:10058400074AD36823F4E0631B041B0C43F0BF63E6
:10059400000243F4003300F4E0600343D360704787
:1005A40000ED00E0174B30B5DC68C4F30224C4F15D
:1005B4000703251D042B28BF0423062D4FF0010536
:1005C40005FA03F303F1FF338CBF033C0024194005
:1005D400A14005FA04F4013C2240002842EA010249
:1005E4004FEA0212ADBF00F1604000F00F00064B6D
:1005F40000F56140B5BFD2B2D2B21A5480F80023DC
:1006040030BD00BF00ED00E014ED00E00138B0F1B2
:10061400807F0AD2064B074A5860F02182F82310E3
:100624000020072298601A6070470120704700BFBD
:1006340010E000E000ED00E02DE9F04F85B00B681C
:10064400DFF89C81644A01934FF001090023019C67
:1006540009FA03F707EA0406B74240F0AD804C6894
:1006640024F0100ABAF1020F16D14FEAD30C00EBB2
:100674008C0C03F0070BDCF820504FEA8B0B4FF087
:100684000F0E0EFA0BFE25EA0E0E0D6905FA0BF598
:1006940045EA0E05CCF820504FEA430C0325D0F868
:1006A40000B005FA0CF5ED4304F0030E0BEA050B5C
:1006B4000EFA0CFE0AF1FF3A4EEA0B0EBAF1010FE4
:1006C4000095C0F800E015D8D0F808E005EA0E0E51
:1006D400CD6805FA0CFA4AEA0E0EC0F808E0D0F824
:1006E40004E02EEA0707C4F3001E0EFA03FE4EEAE6
:1006F40007074760C768009D3D408F6807FA0CF7FD
:100704003D43C560E50057D54FF0000BCDF80CB064
:10071400D8F84470314D47F48047C8F84470D8F88D
:10072400447007F480470397039F23F0030707F1FE
:10073400804707F59C3703F0030CD7F808A04FEA6D
:100744008C0C4FF00F0E0EFA0CFEA8422AEA0E0E85
:1007540039D005F58065A84237D005F58065A842F3
:1007640035D005F58065A84233D005F58065A842EB
:1007740014BF0725042505FA0CF545EA0E05BD60EE
:100784001568F74314F4803F0CBF3D4035431560B2
:10079400556814F4003F0CBF3D40354355609568DF
:1007A40014F4801F0CBF3D4035439560D568A40206
:1007B40054BF3D403543D5600133102B7FF447AF20
:1007C40005B0BDE8F08F5D46D5E70125D3E70225E6
:1007D400D1E70325CFE700BF003C01400000024001
:1007E400003802400369194214BF012000207047F9
:1007F4000AB1816170470904FBE700002DE9F34168
:10080400044618B9012002B0BDE8F0810368DD0791
:1008140010D42368980758D423681A0700F19A80E3
:1008240023685B0700F1B880A269002A40F01981AF
:100834000020E8E7A64B9A6802F00C02042A07D0CD
:100844009A6802F00C02082A0AD15B68590207D59B
:100854009F4B1B689A03DCD56368002BD9D1D1E781
:1008640063689B4DB3F5803F11D12B6843F480330B
:100874002B60FFF77FFE964D06462B689B03C8D47A
:10088400FFF778FE801B6428F7D90320BBE7B3F594
:10089400A02F04D12B6843F480232B60E5E72A685A
:1008A40022F480322A602A6822F480222A60002BF3
:1008B400DFD1FFF75FFE06462B689F03A9D5FFF73C
:1008C40059FE801B6428F7D9DFE7814B9A6812F040
:1008D4000C0F07D09A6802F00C02082A11D15B6849
:1008E4005E020ED47A4B1A68950702D5E268012A93
:1008F40088D11A68216922F0F80242EAC1021A601A
:100904008AE7E268734BB2B101221A60FFF732FE44
:100914006F4D06462B68980707D52B68226923F08C
:10092400F80343EAC2032B6076E7FFF723FE801B3C
:100934000228EFD9A9E71A60FFF71CFE644D0646AA
:100944002B6899077FF568AFFFF714FE801B022818
:10095400F6D99AE76269604B7AB101221A60FFF70F
:1009640009FE5B4D06466B6F9F073FF559AFFFF7D6
:1009740001FE801B0228F6D987E71A60FFF7FAFD0B
:10098400534D06466B6F98077FF54AAFFFF7F2FDAC
:10099400801B0228F6D978E74D4B1A6C12F080526E
:1009A40028D101921A6C42F080521A641B6C03F035
:1009B40080530193019B0126484D2B68D9051BD513
:1009C400A368434D012B27D12B6F43F001032B6701
:1009D400FFF7D0FD3E4D074641F288382B6F9B0749
:1009E40039D5002E3FF420AF394A136C23F08053DD
:1009F400136419E70026DFE72B6843F480732B6048
:100A0400FFF7B8FD07462B68DA05D9D4FFF7B2FD26
:100A1400C01B0228F7D938E7052B04D12B6F43F00C
:100A240004032B67D0E72A6F22F001022A672A6F9A
:100A340022F004022A67002BCAD1FFF79BFD41F282
:100A4400883807462B6F9807CBD5FFF793FDC01B5B
:100A54004045F7D919E7FFF78DFDC01B4045BDD9C7
:100A640013E71B4DAB6803F00C03082B3FF4CAAE2D
:100A74001B4E0023022A336034D1FFF77BFD074667
:100A84002B6899011ED4226AE3691343626A43EA1C
:100A94008213E26A43EA0263A26A0D4C5208013AE5
:100AA40043EA02436B6001233360FFF763FD0546AD
:100AB40023689A013FF5BCAEFFF75CFD401B02289A
:100AC400F6D9E2E6FFF756FDC01B0228D8D9DCE6CA
:100AD4000038024000004742800E47420070004048
:100AE40060004742FFF746FD04462B689B017FF5F3
:100AF4009FAEFFF73FFD001B0228F6D9C5E600BFF5
:100B0400134908B58B6803F00C03042B03D0082B9E
:100B140003D0104808BD104808BD4A684B684968AE
:100B240013F4800314BF0C480A48C1F3881118BF9A
:100B3400002302F03F02A1FB0001FFF749FB044B35
:100B44005B68C3F3014301335B00B0FBF3F008BD02
:100B5400003802400024F40000127A002DE9F0412C
:100B64000D46044610B90120BDE8F081444B1A68D3
:100B740002F00F028A4228D321688F072DD4C807B8
:100B840040D43F4B1A6802F00F02954266D32268A4
:100B940051076CD4130707D53A4A2169936823F4A3
:100BA400604343EAC1039360FFF7AAFF354B364A1B
:100BB4009B68C3F30313D35CD840344B1860002004
:100BC400FFF78EFC0020BDE8F081CAB21A701B68E2
:100BD40003F00F039942C6D1CEE72A4B11F0040F5C
:100BE4001EBF9A6842F4E0529A600E0742BF9A68A8
:100BF40042F460429A609A68A06822F0F0020243CC
:100C04009A60BCE762681F4B012A1DD11B6813F46C
:100C1400003FA8D01B4EB36823F003031343B36013
:100C2400FFF7A8FC41F288380746B368626803F00E
:100C34000C03B3EB820FA4D0FFF79CFCC01B404510
:100C4400F3D90320BDE8F081911E01291B6802D865
:100C540013F0007FDDE713F0020FDAE7EAB21A704F
:100C64001B6803F00F039D427FF47DAF8FE70549B6
:100C7400E0688B6823F4E05303438B608AE700BF8A
:100C8400003C024000380240AC120008080000207A
:100C9400044B054A9B68C3F38223D35C034A106860
:100CA400D840704700380240BC12000808000020F9
:100CB400044B054A9B68C3F34233D35C034A106870
:100CC400D840704700380240BC12000808000020D9
:100CD4002DE9F0470668C2683369C16923F44053BB
:100CE40013433361044683680069F268034360690F
:100CF40022F41642034322F00C020B431343F36025
:100D04007369A26923F440731343B1F5004F73610F
:100D14007A4B7CD19E4203D003F580639E4244D13A
:100D2400FFF7C6FF192505FB00F360684FF064095F
:100D34004000B3FBF0F3B3FBF9F34FEA0318FFF7FA
:100D4400B7FF636868435B00B0FBF3F7FFF7B0FFDE
:100D5400636868435B00B0FBF3F3B3FBF9F309FB8F
:100D64001373DB003233B3FBF9F35B0003F4F8775E
:100D7400FFF79EFF626868435200B0FBF2FAFFF788
:100D840097FF636868435B00B0FBF3F3B3FBF9F3CD
:100D940009FB13A3DB003233B3FBF9F303F00703BE
:100DA40043443B44B360BDE8F087FFF771FF192566
:100DB40005FB00F360684FF064094000B3FBF0F3F7
:100DC400B3FBF9F34FEA0318FFF762FF6368684364
:100DD4005B00B0FBF3F7FFF75BFF636868435B00FE
:100DE400B0FBF3F3B3FBF9F309FB1373DB0032330A
:100DF400B3FBF9F35B0003F4F877FFF749FF62688C
:100E040068435200B0FBF2FAFFF742FFB9E79E4293
:100E140002D03B4B9E4240D1FFF74AFF6768192539
:100E24004FF0640905FB00F3BF00B3FBF7F3B3FB1A
:100E3400F9F31F01FFF73CFF636868439B00B0FBB5
:100E4400F3F8FFF735FF636868439B00B0FBF3F3E7
:100E5400B3FBF9F309FB13831B013233B3FBF9F33F
:100E640003F0F008FFF724FF626868439200B0FBC8
:100E7400F2FAFFF71DFF636868439B00B0FBF3F3CE
:100E8400B3FBF9F309FB13A31B013233B3FBF9F3EF
:100E940003F00F0343EA080383E7FFF7F9FE6768EB
:100EA40019254FF0640905FB00F3BF00B3FBF7F30A
:100EB400B3FBF9F31F01FFF7EBFE636868439B0084
:100EC400B0FBF3F8FFF7E4FE636868439B00B0FBF4
:100ED400F3F3B3FBF9F309FB13831B013233B3FBC5
:100EE400F9F303F0F008FFF7D3FE62686843920059
:100EF400B0FBF2FAFFF7CCFEBDE700BF00100140E3
:100F04000014014010B5044640B390F8393003F0A2
:100F1400FF021BB980F8382000F000F9226824236E
:100F240084F83930D36823F40053D3602046FFF7A4
:100F3400CFFE23681A6922F490421A615A6922F09A
:100F44002A025A61DA6842F40052DA60002020234F
:100F5400E06384F8393084F83A3010BD012010BDC4
:100F640030B595B03022002108A800F089F900219D
:100F7400142203A800F084F900241C4B01941A6C79
:100F840042F080521A641B6C194A03F08053019397
:100F9400019B0294136823F4404343F40043136019
:100FA40013680F9403F440430293029B01230B93B1
:100FB40010230C9310934FF4A87311930423022568
:100FC400129308A80723139308950E95FFF716FCB0
:100FD4000F23039329464FF4805303A804950594E3
:100FE40006930794FFF7BAFD15B030BD00380240F0
:100FF4000070004000B58BB0FFF796FAFFF7B0FF22
:10100400142200210DEB020000F03AF90024304BC9
:1010140001941A6B2F48304D42F004021A631A6B84
:1010240002F004020192019A02941A6B42F08002C7
:101034001A631A6B02F080020292029A03941A6BEA
:1010440042F001021A631A6B02F001020392039A3E
:1010540004941A6B42F002021A631B6B03F002033E
:10106400224604932021049BFFF7C2FB4FF4005354
:1010740005A91948059306940794FFF7DDFA202380
:10108400059305A901231348069307940894FFF7D1
:10109400D3FA1248124A84604FF4E13380E80C001A
:1010A4000C23C46004618461C4614361FFF72AFFB7
:1010B400084C4FF400512846FFF794FB28B901224D
:1010C40020212046FFF794FBF3E70022F8E700BF56
:1010D4000038024000000240000802402C000020BA
:1010E4000044004082B00C4B002100915A6C42F441
:1010F40080425A645A6C02F480420092009A019130
:101104001A6C42F080521A641B6C03F080530193F2
:10111400019B02B0704700BF0038024010B504467E
:1011240088B01422002103A800F0AAF82268134B07
:101134009A4220D103F5FA33002101911A6C104828
:1011440042F400321A641A6C02F400320192019AD9
:1011540002911A6B42F001021A631B6B03F0010344
:101164000293029B0C2303930223049303A90723F2
:101174000793FFF761FA08B010BD00BF00440040B8
:10118400000002407047FEE7FEE7FEE7FEE7704717
:1011940070477047FFF7E2B90F49D1F8883043F43C
:1011A4007003C1F888300D4B1A68002042F0010228
:1011B4001A6098601A6822F0847222F480321A60ED
:1011C400074A5A601A6822F480221A60D8604FF0E5
:1011D40000638B60704700BF00ED00E00038024000
:1011E40010300024DFF834D0002103E00C4B5B58AE
:1011F400435004310B480C4B42189A42F6D30B4A25
:1012040002E0002342F8043B094B9A42F9D3FFF76A
:10121400C3FF00F011F8FFF7EDFE704700800120D6
:10122400D4120008000000200C0000200C00002054
:101234006C000020FEE7000070B50D4E0D4CA41BA1
:10124400A4100025A54209D10B4E0C4C00F020F847
:10125400A41BA4100025A54205D170BD56F8253065
:1012640098470135EEE756F8253098470135F2E7FF
:10127400CC120008CC120008CC120008D0120008CE
:1012840002440346934200D1704703F8011BF9E777
:10129400F8B500BFF8BC08BC9E467047F8B500BF5F
:0812A400F8BC08BC9E4670472F
:1012AC00000000000000000001020304060708090A
:0812BC00000000000102030420
:0812C40040EFFF7F0100000074
:0412CC00B90100085C
:0412D000950100087C
:0C12D40001000000100000000024F400E5
:04000005080011E9F5
:00000001FF
